:100000000C9436070C947D070C947D070C947D07A7
:100010000C947D070C947D070C947D070C947D0750
:100020000C947D070C947D070C94A12B0C94742CDC
:100030000C94A31D0C947D070C947D070C947D07F4
:100040000C947D070C947D070C947D070C947D0720
:100050000C947D070C94241E0C947D070C947D0752
:100060000C947D070C947D070C947D070C947D0700
:100070000C947D070C947D070C947D070C947D07F0
:100080000C947D070C947D070C947D070C947D07E0
:100090000C9487090C947D070C947D070C947D07C4
:1000A0000C947D070C947D070C947D072530325805
:1000B0003A20253031366225730A00722F632030D2
:1000C0003132333435363738394142434445460AB4
:1000D0000014001A0008002B001500180017001C5F
:1000E00000120013002F000C003000000031004C03
:1000F000001E001F002000290021002400220023F0
:1001000000260027002D0025002E0000002A0049AF
:10011000000000E300E200E0000000000000002C0E
:1001200000E6000000E40000000151510050004FC3
:100130000000001D001B00E1000600110019000571
:10014000003600370038001000E5005200000000C3
:1001500000040016000700390009000D000A000B1A
:10016000000F00330034000E0000000000280000E3
:10017000000000000000000000000000000000007F
:10018000000000000000000000000000000000006F
:10019000000000000000000000000000000000005F
:1001A000000000000000000000000000000000004F
:1001B000000000000000000000000000000000003F
:1001C000000000000000000000000000000000002F
:1001D0000001000100010001000100010001000117
:1001E0000047004800010046000100000001000136
:1001F000003A003B003C0035003D0040003E003F1F
:10020000004200430044004100450000000100019D
:1002100000000001000100010000000000000001DA
:100220000001000000010000000151010001000177
:1002300000000001000100010001000100010001B7
:10024000004D004E0001000100010001000000000F
:100250000001000100010001000100010001000196
:10026000004B00010001004A0000000000010000F6
:10027000000000000000000000000000000000007E
:10028000000000000000000000000000000000006E
:10029000000000000000000000000000000000005E
:1002A000000000000000000000000000000000004E
:1002B000000000000000000000000000000000003E
:1002C000000000000000000000000000000000002E
:1002D0000044454255473A2064697361626C656425
:1002E0002E0A0044454255473A20656E61626C65AE
:1002F000642E0A000A002530325820006B657962AE
:100300006F6172645F7265706F72743A20000A00E8
:1003100025303258006B6579626F6172645F736576
:10032000745F6C65643A200064656C5F6B65795F2F
:100330006269743A2063616E27742064656C3A20A8
:10034000253032580A006164645F6B65795F6269C9
:10035000743A2063616E2774206164643A2025300A
:1003600032580A00290A002575002F002575005D06
:10037000280025640020002564002000256400205A
:10038000002564007C0025303258006D6F75736560
:100390006B6579205B62746E7C78207920762068AA
:1003A0005D287265702F61636C293A205B006D6B6C
:1003B0005F776865656C5F74696D655F746F5F6DAD
:1003C0006178203D2025640A006D6B5F7768656564
:1003D0006C5F6D61785F7370656564203D20256496
:1003E0000A006D6B5F74696D655F746F5F6D617836
:1003F000203D2025640A006D6B5F6D61785F73702E
:10040000656564203D2025640A006D6B5F696E742C
:10041000657276616C203D2025640A006D6B5F6417
:10042000656C6179203D2025640A006D6B5F7768FB
:1004300065656C5F74696D655F746F5F6D61782071
:100440003D2025640A006D6B5F776865656C5F6DA4
:1004500061785F7370656564203D2025640A006DD6
:100460006B5F74696D655F746F5F6D6178203D20AF
:1004700025640A006D6B5F6D61785F7370656564FC
:10048000203D2025640A006D6B5F696E746572768D
:10049000616C203D2025640A006D6B5F64656C61B2
:1004A00079203D2025640A000A00257500363A208F
:1004B000776865656C5F74696D655F746F5F6D61AA
:1004C000783A20000A00257500353A20776865657E
:1004D0006C5F6D61785F73706565643A20000A0037
:1004E000257500343A2074696D655F746F5F6D61C6
:1004F000783A20000A00257500333A206D61785F54
:1005000073706565643A20000A00257500323A2050
:10051000696E74657276616C286D73293A20000AE1
:1005200000257500313A2064656C6179282A3130E4
:100530006D73293A20000A092D2056616C75657388
:10054000202D0A004D3E004D25643E20003F0073E3
:1005500065742064656661756C740A00433E200012
:1005600077686572652064656C74613A20637572A2
:10057000736F723D25642C20776865656C3D25643A
:100580000A53656520687474703A2F2F656E2E7754
:10059000696B6970656469612E6F72672F77696B2B
:1005A000692F4D6F7573655F6B6579730A000A0972
:1005B0002D204D6F7573656B6579202D0A4553436A
:1005C0002F713A09717569740A313A0964656C6171
:1005D00079282A31306D73290A323A09696E7465B7
:1005E0007276616C286D73290A333A096D61785F00
:1005F00073706565640A343A0974696D655F746F78
:100600005F6D61780A353A09776865656C5F6D6181
:10061000785F73706565640A363A09776865656C5A
:100620005F74696D655F746F5F6D61780A0A703A17
:10063000097072696E742076616C7565730A643A2C
:10064000097365742064656661756C74730A7570EE
:100650003A092B310A646F776E3A092D310A7067B7
:1006600075703A092B31300A7067646F776E3A09FA
:100670002D31300A0A7370656564203D2064656C15
:100680007461202A206D61785F7370656564202A2B
:100690002028726570656174202F2074696D655F14
:1006A000746F5F6D6178290A003F004D3E20004362
:1006B0003E20004C25640A0074696D65725F7265A6
:1006C0006164333228293A202530346C580A006B93
:1006D00065796D61705F636F6E6669672E6E6B72B0
:1006E0006F3A2025580A006B6579626F6172645F0A
:1006F00069646C653A2025580A006B6579626F6100
:1007000072645F70726F746F636F6C3A2025580A61
:1007100000686F73745F6B6579626F6172645F6CA0
:1007200065647328293A2025580A000A092D2053A8
:100730007461747573202D0A004743433A20392EA3
:10074000322E30204156522D4C4942433A20322E0F
:10075000302E30204156525F415243483A20617654
:1007600072350A004F5054494F4E533A204C55466B
:1007700041204D4F5553454B455920455854524102
:100780004B455920434F4E534F4C4520434F4D4D01
:10079000414E44204E4B524F20343039360A0042ED
:1007A00055494C443A2022302E372E32372D3136DF
:1007B0002D6732613934386522202831373A313992
:1007C0003A353620536570203235203230313929A0
:1007D0000A005649443A2030784645454428514D50
:1007E0004B29205049443A20307836363043284C43
:1007F000656F706F6C6420464336363043207769EE
:10080000746820514D4B29205645523A203078309B
:100810003130300A00444553433A204C656F706FC5
:100820006C6420464336363043207769746820482C
:1008300061737520616C7465726E61746976652090
:10084000636F6E74726F6C6C6572207573696E671E
:1008500020514D4B0A000A092D2056657273696FAD
:100860006E202D0A000A092D20436F6E736F6C6590
:10087000202D0A4553432F713A09717569740A6D29
:100880003A096D6F7573656B65790A000A092D2049
:100890004D61676963202D0A443A094465627567B2
:1008A000204D65737361676520546F67676C650AD7
:1008B000583A094D61747269782044656275672001
:1008C0004D6F646520546F67676C65202D205368F9
:1008D0006F77206B65797072657373657320696ECD
:1008E000206D617472697820677269640A4B3A09F5
:1008F0004B6579626F61726420446562756720544C
:100900006F67676C65202D2053686F77206B657962
:100910007072657373207265706F72740A4D3A0954
:100920004465627567204D6F75736520546F676706
:100930006C650A563A0956657273696F6E0A533AC6
:10094000095374617475730A433A09416374697693
:1009500061746520436F6E736F6C65204D6F6465C5
:100960000A46312D4631303A09537769746368205D
:10097000746F204C6179657220302D392028463102
:1009800030203D204C30290A302D393A09537769FF
:1009900074636820746F204C6179657220302D3942
:1009A0000A47524156453A0953776974636820747F
:1009B0006F204C6179657220302028616C746572FB
:1009C0006E617465290A423A094A756D7020746F28
:1009D00020426F6F746C6F616465720A4553433ACD
:1009E000094A756D7020746F20426F6F746C6F616F
:1009F0006465722028616C7465726E617465290A81
:100A0000453A095072696E7420454550524F4D2049
:100A100053657474696E67730A4253504143453A93
:100A200009436C65617220454550524F4D0A4E3A5C
:100A3000094E4B524F20546F67676C650A000A00DD
:100A40002575002E6E6B726F3A20000A0025750026
:100A50002E737761705F6261636B736C6173685F43
:100A60006261636B73706163653A20000A002575EB
:100A7000002E737761705F67726176655F6573637F
:100A80003A20000A002575002E6E6F5F6775693A7F
:100A900020000A002575002E737761705F72616C0B
:100AA000745F726775693A20000A002575002E731D
:100AB0007761705F6C616C745F6C6775693A200078
:100AC0000A002575002E737761705F7263746C5F26
:100AD000726775693A20000A002575002E737761E8
:100AE000705F6C63746C5F6C6775693A20000A0014
:100AF0002575002E636170736C6F636B5F746F5F3D
:100B0000636F6E74726F6C3A20000A002575002EB8
:100B1000737761705F636F6E74726F6C5F63617027
:100B2000736C6F636B3A20000A0025303258006BFB
:100B300065796D61705F636F6E6669672E7261774C
:100B40003A20000A002575002E6D6F7573653A20F6
:100B5000000A002575002E6B6579626F6172643A38
:100B600020000A002575002E6D61747269783A20A4
:100B7000000A002575002E656E61626C653A2000E2
:100B80000A00253032580064656275675F636F6ED6
:100B90006669672E7261773A20000A002575006445
:100BA000656661756C745F6C617965723A20003FAF
:100BB000004E4B524F3A206F66660A004E4B524F22
:100BC0003A206F6E0A000A6D6F7573653A206F6682
:100BD000660A000A6D6F7573653A206F6E0A000A27
:100BE0006B6579626F6172643A206F66660A000A0B
:100BF0006B6579626F6172643A206F6E0A000A6DEC
:100C000061747269783A206F66660A000A6D6174D1
:100C10007269783A206F6E0A000A64656275673AF5
:100C2000206F66660A000A64656275673A206F6E17
:100C30000A000A0A4A756D70696E6720746F206237
:100C40006F6F746C6F616465722E2E2E2000433EB0
:100C50002000436C656172696E6720454550524FB4
:100C60004D0A006565636F6E6669673A0A005B73DB
:100C70005D004B6579626F61726420737461727498
:100C80002E0A005B575D005B535D005B525D005BAD
:100C9000445D005B435D0004033000000030034C02
:100CA0000065006F0070006F006C0064002000465B
:100CB0000043003600360030004300200077006912
:100CC0000074006800200051004D004B0000000837
:100CD0000351004D004B0000000403090409025BAE
:100CE00000030100A0FA090400000103010100094A
:100CF00021110100012240000705810308000A09B3
:100D0000040100010300000009211101000122C0BB
:100D1000000705820320000A090402000203000004
:100D20000009211101000122220007058303200090
:100D30000107050303200001120110010000000853
:100D4000EDFE0C660001010203010631FF0974A1EA
:100D5000010975150026FF009520750881020976A6
:100D6000150026FF00952075089102C005010902B3
:100D7000A10185020901A100050919012905150034
:100D80002501950575018102950175038101050114
:100D9000093009311581257F9502750881060938CA
:100DA0001581257F950175088106050C0A38021505
:100DB00081257F950175088106C0C005010980A1C4
:100DC0000185031A81002A8300160100260300957D
:100DD0000175108100C0050C0901A10185041A01EB
:100DE000002A9C02160100269C02950175108100C4
:100DF000C005010906A1018505050719E029E715C8
:100E00000025019508750181020507190029EF15D4
:100E100000250195F0750181020508190129059544
:100E20000575019102950175039101C0050109063F
:100E3000A101050719E029E71500250195087501AD
:100E400081029501750881010507190029FF150028
:100E500026FF0095067508810005081901290595EA
:100E60000575019102950175039101C011241FBE02
:100E7000CFEFDAE0DEBFCDBF04B603FE27C080911E
:100E8000800290918102A0918202B091830287300A
:100E9000904BA740B04BD1F4109280021092810287
:100EA000109282021092830214BE84B7877F84BF9F
:100EB0000FB6F894A89580916000886180936000D7
:100EC000109260000FBEE0E0F8E3099511E0A0E0A9
:100ED000B1E0E0E3FEE502C005900D92AE32B1074D
:100EE000D9F722E0AEE2B1E001C01D92A038B2070E
:100EF000E1F70E94C7280C94A12E0C940000FF93E8
:100F0000EF93E0912E01F0912F01309709F00995B0
:100F1000EF91FF910895FC018591803011F0EFDF92
:100F2000FBCF0895FF27E0E230E247FF0CC0419578
:100F300097FF09C0EDE26095709580959095611DD1
:100F4000711D811D911D27FF02C0219530E350E2E4
:100F5000AA27660F771F881F991FAA1FA41710F0D2
:100F6000A41B63955A95A9F7AA3008F0A95FA05D64
:100F7000AF93F395611571058105910541F7ED3248
:100F800011F4EF93F395F21718F43F93F395FBCF19
:100F90008F91B5DFFA95E1F70895E991F99185917F
:100FA000803021F0853219F0AADFF9CF089520E0D2
:100FB000E89455915532C1F3503311F4689455912A
:100FC0005A3348F4505390F3220F022E220F220F6F
:100FD000200D250FF4CF0EF4219589919991533668
:100FE00019F3533729F1533559F1BC018827992753
:100FF000E8945C3621F4899199916894559154361E
:1010000039F446EF7EF077FF0DC08FEF9FEF0AC0F7
:1010100055374AE039F0583540E121F0523642E088
:1010200009F00895FF93EF937DDFEF91FF91B7CF24
:10103000FF93EF93FC0181918030B9F360DFFBCF28
:10104000FF93EF9368DFF1CFDF93CF93CDB7DEB798
:101050002596A3DFCF91DF9108950895089584B177
:101060008F6184B93E98469A3F9A8AB1806F8AB957
:101070005F9A479884B1806684B985B1806685B9E6
:10108000A0E4B1E011961C921E9213961C921E923F
:10109000129715961C921E92149717961C921E92E8
:1010A000169719961C921E9218971B961C921E92C8
:1010B0001A971D961C921E921C971F961C921E92A8
:1010C0001E97E0E3F1E011821082138212821582F2
:1010D0001482178216821186108613861286158650
:1010E000148617861686B0935301A0935201F0938D
:1010F0005101E09350010C94300AAF92BF92CF920D
:10110000DF92EF92FF920F931F93CF93DF93809123
:10111000500190915101209152013091530130932F
:101120005101209350019093530180935201F12C6F
:10113000E12CC1E0D0E00FEF10E095B1907E28E007
:10114000E3FC20E18E2D8770892B822B85B9AE01BF
:101150000E2C02C0440F551F0A94E2F7BA016095A5
:10116000709530E020E0D12C8BB18F708D29806894
:101170008BB98AE08A95F1F700C0E0915001F091B7
:101180005101E20FF31F8081918184239523892BE4
:1011900009F0479A95E39A95F1F70000C6B45F9875
:1011A0008AE08A95F1F700C0E0915201F091530175
:1011B000DF01A20FB31F369B5BC08D919C911197ED
:1011C000862397238D939C9386B5AC2DB0E08C1528
:1011D00008F454C086B590E08A1B9B0B069760F01C
:1011E000A0915001B0915101A20FB31F8D919C911C
:1011F000E20FF31F918380838AE18A95F1F700C0A3
:1012000047985F9A8BE291E00197F1F700C00000E8
:1012100090E1D90E2E5F3F4F80E8A82EDA10A4CFC0
:10122000A0915201B0915301E0915001F091510110
:1012300050962D913C91808991892817390711F09A
:101240000E94DF1D8FEFE81AF80A90E1E916F10419
:1012500009F073CF0E94380A81E0DF91CF911F918E
:101260000F91FF90EF90DF90CF90BF90AF900895D7
:101270008D919C911197842B952BA4CF86B5580105
:10128000AA1ABB0A8A0D9B2D911DA8CF90E0880F4A
:10129000991F2091520130915301820F931FFC013D
:1012A000808191810895EF92FF920F931F93CF93C6
:1012B000DF938BEB90E00E948B07D0E0C0E083E1EE
:1012C000E82E81E0F82E0CEA10E08C2F0E944609EF
:1012D0000E94ED1BFF92EF929F938F93DF93CF932A
:1012E0001F930F930E94240821968DB79EB70896EE
:1012F0000FB6F8949EBF0FBE8DBFC830D10529F739
:10130000DF91CF911F910F91FF90EF9008951F9261
:101310001FB61F9211248F939F93EF93FF93809199
:10132000B900982F987F9038B9F038F4992309F4D0
:101330004AC0903671F081E021C0887E883AD9F7A2
:10134000E0915501F0E0E55AFD4F80818093BB00AC
:1013500031C010925401EFCF80915401811122C00D
:101360008091BB0080935501809155018031C0F080
:101370001092550180E091E0909354019091BC004F
:101380008295880F880F807C892B85688093BC00AC
:10139000FF91EF919F918F911F901FBE1F90189505
:1013A00081E0E9CFE0915501F0E08091BB00E55A82
:1013B000FD4F80838091550190E001968F709927B1
:1013C00080935501B8CF1092BC00B5CF0C942D0876
:1013D0000C942E080C94F50981FF03C02E980C94F0
:1013E0003A0A2E9AFCCF81E0089581E008951F9378
:1013F000CF93DF9300D000D00F92CDB7DEB74983F3
:101400005A836B832091710189819A8121111BC0BC
:101410006623A9F00E94851A182F682F89819A8166
:101420000E94311A69817A81812F0F900F900F905D
:101430000F900F90DF91CF911F910C94A60B0E94FB
:101440005D1A182FEFCF0E94851A69817A81EDCF3E
:10145000FC01408151816281738184810C94F70980
:101460000E94FA1B811102C00E94971C0C94E6098D
:101470000C94E80908950C94EC0908950E94AE14A8
:101480000E943D0A2FEF84E39CE021508040904071
:10149000E1F700C000000C94481E0F931F93CF93F8
:1014A000DF938C010E94280AEC01B8010E94EA092E
:1014B000882309F475C0B801CE010E94C70E8823A5
:1014C00009F46EC0CC3D8CE5D80709F48CC068F5F2
:1014D000C130FCE5DF0709F469C058F4C115DC45EB
:1014E00009F459C0C801DF91CF911F910F910C945D
:1014F000F309C631FCE5DF0760F1C631DC4591F741
:101500000E94221BF8019281992309F411C18A7A61
:1015100091E009F490E090935601811107C189E2AE
:101520000E94FD1A0E94711B3BC0CE3DECE5DE0718
:1015300009F452C048F4CD3DDC45A1F6F8018281A2
:10154000882371F182E054C0CE018A5F9C450997DF
:1015500048F6F8018281882329F20E94FA1B811142
:1015600002C00E94971C0E940D1C909372028093EF
:101570007102C631FCE5DF0708F04AC0C2308CE5D5
:10158000D807C8F580917102909172020E941B1CCD
:101590000E94AE1405C0F801828181110E943E0AAA
:1015A00080E0DF91CF911F910F910895F801828122
:1015B0008823B1F390912702892F8E7F90FF81605D
:1015C0008093270280FF05C083EE92E00E948B0784
:1015D000E7CF81ED92E0FACFF8018281882301F311
:1015E0000E94971CDDCFF80182818823C9F280E038
:1015F0000E947129D5CFFE01E350FC458091710214
:101600008160E331F10590F4ED55F14D0C94452ED8
:10161000CA5FDC45C930D10508F0B4CFCA54D14DFA
:10162000FE010C94452E80917102826080937102BC
:10163000A9CF809171028460F9CF80917102886096
:10164000F5CF809172028160809372029BCF80916E
:1016500072028260F9CF809171028061E7CF809140
:1016600071028062E3CF809171028064DFCF80914C
:1016700071028068DBCF809171028C60D7CF80913E
:1016800072028360E1CF809171028E7FCFCF809113
:1016900071028D7FCBCF809171028B7FC7CF8091FC
:1016A0007102877FC3CF809172028E7FCDCF8091F0
:1016B00072028D7FC9CF809171028F7EB7CF8091EA
:1016C00071028F7DB3CF809171028F7BAFCF8091FC
:1016D00071028F77ABCF80917102837FA7CF80910A
:1016E00072028C7FB1CF8091710282FB992790F9B1
:1016F00021E0922790FB82F990FB83F997CF8091AC
:101700007202982F909591708E7F892B90FB81F9B2
:101710009BCF90917102892F97FB87F9805886CFD4
:1017200081E00E94991C2ECF80E0FBCF85E3F8CEAC
:1017300080915601811104C089E20E94041BF2CEFF
:1017400085E3FBCF90E080E00895089598E0899FBD
:10175000F0011124E70FF11D84E0EE0FFF1F8A95C1
:10176000E1F7E60FF11DEE0FFF1FEF52FF4F8591DE
:1017700094910895FC01EE0FFF1FEC50FD4F8591F1
:1017800094910895CF93DF930E94A60B0E947F0D42
:10179000EC01811520E5920708F0A3C0811530E423
:1017A000930708F012C1803E910508F079C0803C93
:1017B000910508F0F3C0883A910580F4853A9105C7
:1017C00008F0F2C08130910509F47BC00497813A9A
:1017D000910508F476C0D0E0C0E073C08F3B91055E
:1017E000D1F3883A910509F445C1893A910509F484
:1017F00044C18A3A910509F443C18B3A910509F431
:1018000042C18C3A910509F441C18B3B910509F421
:1018100040C18C3B910509F43FC18D3A910509F413
:101820003EC1803B910509F43DC18E3A910509F412
:101830003CC18F3A910509F43BC1813B910509F404
:101840003AC1823B910509F439C1833B910509F402
:1018500038C1843B910509F437C1853B910509F4F2
:1018600036C1863B910509F435C1873B910509F4E2
:1018700034C1883B910509F433C1893B910509F4D2
:1018800032C18D3B910509F431C18E3B910509F4BC
:1018900030C18A3B910509F42FC1C0E0D4E411C0E6
:1018A000811540E2940788F48F3F910509F048F4D0
:1018B000883E910530F0805F9109D065409708F02F
:1018C0008ACFCE01DF91CF910895C11580E3D8076B
:1018D00008F475C0CE019927D3FD74C0EC01D06C1B
:1018E000F0CFC11595E5D90760F5C11524E5D207FC
:1018F00008F09CC0C11533E5D30778F4C11542E563
:10190000D40708F082C0C11581E5D80708F460C08B
:10191000DC2FCC27C16FD06AD4CFCE01837099273A
:1019200021E030E002C0220F331F8A95E2F7C6950E
:10193000C69590E2C99FE0011124C22BD32BDA682F
:10194000C0CFC1152AE5D207B0F4C11539E5D307D8
:1019500008F07CC0C11546E5D40708F46CC0CE0180
:1019600098558F3F910511F008F035CFDC2FCC272B
:10197000C06FD06AA6CFCE0190568115904208F074
:101980002ACF8D2F8F710E94170E90E0982F8827F5
:1019900088279F719C012C2BE90156C0805C91091E
:1019A0000E94BA0BEC018DCF853A910509F45CC019
:1019B000863A910509F05BC0C2E8D0E482CFCE013F
:1019C0009F70EECFEC01D86C7CCFDF70D06A79CFFE
:1019D000CE0174E0969587957A95E1F783702C2F68
:1019E00026952695237040E2249F90011124382BE0
:1019F0008C2F8370C1E0D0E002C0CC0FDD1F8A9530
:101A0000E2F7C22BD32BDC685CCFCE018370992721
:101A100021E030E002C0220F331F8A95E2F7C6951D
:101A2000C69580E2C89FE0011124EBCFDC2FCC27C4
:101A3000C46FD06A46CF8C2F0E94170EC82FD0E0FB
:101A4000DC2FCC27CC27DF71D0623BCF8C2F8F705F
:101A50000E94170E34E0D695C7953A95E1F7CF70FE
:101A6000DC2FC82FD0692DCFC1E8D0E42ACFC3E83E
:101A7000D0E427CFC2EED4E424CFC9EED4E421CF02
:101A8000CAEED4E41ECFC5EBD4E41BCFC6EBD4E43E
:101A900018CFC3EBD4E415CFC4EBD4E412CFC7EB1B
:101AA000D4E40FCFCCECD4E40CCFCDECD4E409CF0C
:101AB000C3E8D5E406CFCAE8D5E403CFC2E9D5E44C
:101AC00000CFC4E9D5E4FDCEC1E2D6E4FACEC3E24C
:101AD000D6E4F7CEC4E2D6E4F4CEC5E2D6E4F1CE45
:101AE000C6E2D6E4EECEC7E2D6E4EBCECFE6D4E44F
:101AF000E8CEC0E7D4E4E5CECAE2D6E4E2CE803E4A
:101B0000910599F1C8F48133910509F476C048F440
:101B10008932910509F46AC08A32910509F474C0CA
:101B2000089589339105D1F082389105B9F0853354
:101B3000910509F454C00895843E910599F138F453
:101B4000823E9105F9F0833E910509F10895863EA4
:101B5000910599F1873E9105B9F10895209171029F
:101B60002370A1F080EE90E008952091710220FD95
:101B700052C03091720230FF09C024FF4FC090E084
:101B800080E004C02091710222FDF7CF08952091DA
:101B9000710222FD46C03091720230FDE3CF24FF76
:101BA000F5CFEDCF2091720221FFF0CF809171022D
:101BB00084FDE5CF87EE90E008952091710223FF28
:101BC000E5CF24FDDCCFF6CF2091710223FD2CC0A0
:101BD0003091720231FFE3CF84EE90E008952091BE
:101BE000710225FFD3CF89E290E008952091710220
:101BF00025FFCCCF85E390E008952091710226FF68
:101C0000C5CF8AE290E008952091710226FFBECFF1
:101C100081E390E0089589E390E0089583EE90E0F9
:101C2000089582EE90E0089586EE90E008959091F8
:101C3000710292FF06C0282F28712830F9F4877F9F
:101C4000846093FF06C0282F28712831F1F4877E25
:101C500084612091720220FF06C0382F387138301D
:101C6000D9F4877F816021FF06C0282F2871283191
:101C7000D1F4877E816194FD877E0895282F247199
:101C80002430F9F68B7F8860DCCF282F2471243133
:101C900001F78B7E8861DDCF382F3171313019F734
:101CA0008E7F8860E0CF282F2171213121F78E7E31
:101CB0008861E1CF0F931F93CF93DF93C62FD42F6B
:101CC000022FFC0182818823C9F0609359010E9490
:101CD000D31D909358018093570180E28C0F883078
:101CE00008F050C0C77081E001C0880FCA95EAF7BC
:101CF000DF91CF911F910F910C94CB11109159014D
:101D0000161335C080915701909158010E94FF1D14
:101D10008F3A910560F5C0E2CD0F1D17B9F080E252
:101D2000810F883040F4177081E001C0880F1A9548
:101D3000EAF70E94D211C83048F481E09D2F9770D5
:101D400001C0880F9A95EAF70E94CB11802F0E945C
:101D5000B811C830B8F4D77081E001C0880FDA95A7
:101D6000EAF7DF91CF911F910F910C94D21180E28D
:101D70008C0F883038F4C77081E001C0880FCA9595
:101D8000EAF7EFCFDF91CF911F910F9108959C015A
:101D9000CB01233F4CE5340769F190F4283DFCE585
:101DA0003F0721F1293D4CE5340781F1273D3C45B2
:101DB000B1F0FC018281882361F1109259010895EC
:101DC000253FFCE53F07D1F0263F4CE53407D1F035
:101DD000243F3C4571F727E245EE64EE03C026E25E
:101DE00041EE61EE0E945A0E80E0089527E245EE32
:101DF00065EEF8CF26E241EE60EEF4CF26E241EE4A
:101E000062EEF0CF27E245EE66EEECCF28E241E04D
:101E1000EFCF81E0089590935F0180935E01089574
:101E2000E0915E01F0915F01309721F00190F08127
:101E3000E02D099480E00895EF92FF920F931F9395
:101E4000CF93DF93EC01E0915E01F0915F01309759
:101E500009F446C080911201882341F080917102FB
:101E600087FF04C08881898385E088830280F381AD
:101E7000E02DCE0109958091270282FF31C080FFBD
:101E800004C08CEF92E00E948B0710E000E086EF28
:101E9000E82E82E0F82E8091270280FF0EC0FE011E
:101EA000E00FF11F80811F928F93FF92EF920E94AB
:101EB00024080F900F900F900F900F5F1F4F083066
:101EC000110549F78091270280FF0AC084EF92E054
:101ED000DF91CF911F910F91FF90EF900C948B07A2
:101EE000DF91CF911F910F91FF90EF900895DC014A
:101EF000E0915E01F0915F01309739F082E08C93C0
:101F00000480F581E02DCD010994089520915C01B4
:101F100030915D012817390771F090935D0180932E
:101F20005C01E0915E01F0915F01309721F0068045
:101F3000F781E02D0994089520915A0130915B01B9
:101F40002817390771F090935B0180935A01E09153
:101F50005E01F0915F01309721F00084F185E02D62
:101F60000994089585B7806885BF85B7806885BF67
:101F70000895089508950C94B90F08950C94BD0F19
:101F80000E94B20F0E94BA0F0C94BB0F81E008951B
:101F90000E94CA1D0E942F080E946C1E0C94BE0F46
:101FA000CF93C82F8091270282FF1EC080FF1CC0E4
:101FB00085E193E00E948B078091270280FF14C087
:101FC0001F92CF9380E193E09F938F930E94240808
:101FD000809127020F900F900F900F9080FF04C008
:101FE0008EE093E00E948B078C2FCF910C943B0ADC
:101FF0005F926F927F928F929F92AF92BF92CF9299
:10200000DF92EF92FF920F931F93CF93DF9300D055
:1020100000D00F92CDB7DEB70E947D080E94C60F98
:10202000882309F479C091E6A92E91E0B92E10E039
:1020300000E088248394912C502E802F0E94460922
:102040007C01F501C190D1905F01C816D90609F451
:102050005DC08091270281FD0E94530990E080E0DD
:10206000CE24DF243401082E02C0660C771C0A94AB
:10207000E2F7960126213721232B09F442C08983F8
:102080005A82E620F72081E0EF2809F480E08B8374
:102090000E94D31D8160782F9D838C8349815A8152
:1020A0006B818D810E94B210000F111FF801EF5952
:1020B000FE4F8081918168267926718260820E941C
:1020C0008D200E94100F909160018917B1F10E943C
:1020D000100F809360010F900F900F900F900F9052
:1020E000DF91CF911F910F91FF90EF90DF90CF90F4
:1020F000BF90AF909F908F907F906F905F900C9467
:10210000D00F01968031910509F0ACCF0F5F1F4FC2
:102110000830110509F090CF8FEF89838A831B82E5
:102120000E94D31D8160782F9D838C8349815A81C1
:102130006B818D810E94B210C2CF0F900F900F90D3
:102140000F900F90DF91CF911F910F91FF90EF9023
:10215000DF90CF90BF90AF909F908F907F906F90C7
:102160005F900895CF93DF93CDB7DEB72B970FB66F
:10217000F894DEBF0FBECDBF4F83588769877A873B
:102180008B871E8285E0FE013796DE011196019055
:102190000D928A95E1F749815A816B817C818D810D
:1021A0009E812B960FB6F894DEBF0FBECDBFDF9198
:1021B000CF910C944717FC01808191810C94C71A30
:1021C000CF93C82F882309F4A2C08CEF8C0F813ADB
:1021D00058F48C2F0E940825811199C08C2F0E94E1
:1021E000FD1ACF910C94711B80E28C0F883048F45B
:1021F000C77081E001C0880FCA95EAF70E94251BCD
:10220000F0CF8BE58C0F833068F481E890E0C53A1D
:1022100031F083E890E0C63A11F482E890E0CF9183
:102220000C94860F88E58C0F873108F068C082EE29
:1022300090E0C83A09F460C089EE90E0C93A09F428
:102240005BC08AEE90E0CA3A09F456C085EB90E094
:10225000CB3A09F451C086EB90E0CC3A09F44CC07B
:1022600083EB90E0CB3B09F447C084EB90E0CC3BA0
:1022700009F442C087EB90E0CD3AF1F18CEC90E0AC
:10228000C03BD1F18DEC90E0CE3AB1F183E891E022
:10229000CF3A91F18AE891E0C13B71F182E991E096
:1022A000C23B51F184E991E0C33B31F181E292E01C
:1022B000C43B11F183E292E0C53BF1F084E292E08D
:1022C000C63BD1F085E292E0C73BB1F086E292E0F6
:1022D000C83B91F087E292E0C93B71F08FE690E055
:1022E000CD3B51F080E790E0CE3B31F090E080E0D4
:1022F000CA3B11F48AE292E0CF910C949C0FC03F4C
:1023000030F08C2F0E94191FCF910C940020CF9198
:102310000895882361F19CEF980F913A20F40E9470
:10232000041B0C94711B90E2980F983050F4877046
:1023300091E001C0990F8A95EAF7892F0E942B1B23
:10234000F0CF9BE5980F933020F490E080E00C9460
:10235000860F98E5980F973120F490E080E00C9478
:102360009C0F803F20F00E94811F0C940020089554
:10237000CF93C82F0E94E010C93349F42FEF87EEA6
:1023800093E0215080409040E1F700C000008C2F86
:10239000CF910C948911882321F00E94251B0C9465
:1023A000711B0895882321F00E942B1B0C94711B34
:1023B0000895AF92BF92CF92DF92EF92FF920F9368
:1023C0001F93CF93DF9300D000D00F92CDB7DEB72D
:1023D0006C016D837983FC01058102950F70128178
:1023E00011110E94441B0E941B1BE82E882371F0D0
:1023F0001123B1F08D81805E883090F082E00E94E0
:10240000BC1B0E941B1B91E0E82EE926A980A29428
:102410009FE0A922B12CF501E154F14D0C94452E19
:10242000E12CF4CF09810F70F981F07F11F0029552
:10243000007F1123B1F0002361F08D81805E883030
:1024400018F02D81211109C0802F0E94251B0E94A8
:10245000711B8D810E94E01015C0802F0E94361BD9
:10246000F6CF8D810E948911002361F08D81805EFD
:10247000883018F04D81411133C0802F0E942B1BF2
:102480000E94711B58E0A51AB10864E0A616B104B9
:1024900020F40E94100F0E943B0AEE2009F40EC2A5
:1024A0000E94171B80FD0AC2F60112820E94111BB6
:1024B0000E942119C6010E946E140E94111B0F90E8
:1024C0000F900F900F900F90DF91CF911F910F9170
:1024D000FF90EF90DF90CF90BF90AF900C94521987
:1024E000802F0E943C1BCCCF59815F70F52E6981F3
:1024F000607F603219F0F29480EFF8227D817723BB
:1025000069F0713049F1112391F1002351F1F60185
:10251000858180FF9ECF8F70858323C0112381F03A
:10252000011106C00E94581B8F290E94CB11AACF0F
:102530000130C1F70E94581B8F290E945E1BA2CF59
:10254000011106C00E94671B8F2D0E94D2119ACFE5
:10255000013009F497CFF6CF112329F0063008F0A7
:1025600091CF8F2DE2CF053008F08CCFEDCF002337
:1025700059F3FD81F93349F42FEF47EE53E0215031
:1025800040405040E1F700C000008D810E94891159
:1025900079CF898186958695837069F0813009F0BD
:1025A00071CF8D8199819370111102C090E080E00C
:1025B0000E949C0F67CF8D8199819370111102C089
:1025C00090E080E00E94860F5DCF112311F16D81B4
:1025D000653F99F0663FB9F0643F49F480916B0222
:1025E00090916C02816090936C0280936B028D815C
:1025F0000E94191F0E94002045CF80916B0290918C
:102600006C028260F0CF80916B0290916C028460CA
:10261000EACF7D81753F89F0763FA9F0743F49F498
:1026200080916B0290916C028E7F90936C028093EC
:102630006B028D810E94811FDDCF80916B02909192
:102640006C028D7FF2CF80916B0290916C028B7F38
:10265000ECCF8981837009F059C0111113CF4D81DE
:10266000429546954770440F440F8D818F7090E0DE
:10267000B0E0A0E0042E04C0880F991FAA1FBB1F62
:102680000A94D2F7ED8100E010E09801E4FF0FC05A
:102690000FE010E020E030E004C0000F111F221F07
:1026A000331F4A95D2F70095109520953095F98102
:1026B000F695F695F370FD83B901A801482B592BC7
:1026C0006A2B7B2B49835A836B837C83F23081F0A6
:1026D000F330A9F0F13029F0CB01BA010E9497182C
:1026E000D1CE69817A818B819C810E946F18CACE7C
:1026F00069817A818B819C810E94BF18C3CE6981D8
:102700007A818B819C810E946D18BCCE86951123A5
:1027100011F089818170882309F4B4CE4D814295EE
:1027200046954770440F440F8D818F7090E0B0E064
:10273000A0E0042E04C0880F991FAA1FBB1F0A9493
:10274000D2F75D8100E010E0980154FF0FC00FE068
:1027500010E020E030E004C0000F111F221F331FE3
:102760004A95D2F700951095209530956981669528
:10277000669563706D83B901A801482B592B6A2BAC
:102780007B2B49835A836B837C835D8169817A814A
:102790008B819C81523051F0533059F0513019F0F7
:1027A0000E94E0196FCE0E94B8196CCE0E94081AE0
:1027B00069CE0E94EB1866CE69816F706983112320
:1027C00029F0862F0E9421198D81AFCE8D810E9424
:1027D000D21189810E94521955CE7D81723FA1F19B
:1027E00060F4703FE1F0713F41F1112309F445C0FD
:1027F00001112FCE89818F7124C08D81833F49F1D2
:10280000843F99F7112379F199819F719983892FD9
:102810000E94211963E089810E94A71B33CE1123F6
:1028200041F0053008F02ECE89818F710E94871902
:1028300029CE063008F026CEF7CF89818F7111237B
:1028400049F20E9421191ECE89818F711123C9F38B
:10285000C1CF112329F089818F710E94FC1812CEFB
:102860000E94F7180FCE81E00E94BC1B023008F4D2
:1028700009CE82E00E94BC1B05CE002361F0ED81F1
:10288000E93309F082CEFFEF27EE43E0F15020401C
:102890004040E1F778CE89818F719CCF49814F709C
:1028A0006D81C6010E94A20B0E94E117EBCD498108
:1028B0004F706D81C6010E94A50BE4CD0F900F9063
:1028C0000F900F900F90DF91CF911F910F91FF907C
:1028D000EF90DF90CF90BF90AF9008950F931F932C
:1028E000CF93DF93EC018B819C81892B29F0888128
:1028F000998189238F3F29F4DF91CF911F910F9107
:102900000895CE010E944D0A8823B1F36881798130
:102910008A810E94D31A8C010E94301A0E946C187E
:10292000B801CE01DF91CF911F910F910C94D91175
:102930000E94441B0E94551B0E94711B0E9424216F
:102940000E94002090E080E00E94860F90E080E0EE
:102950000C949C0F0E940B1B0C9498140E94331B28
:102960000C94AA14282F892F82958F70903C80F4A4
:102970008A30B0F4843020F4823090F480E00895FE
:102980008630E1F781E0283E88F0213FB9F70EC09C
:102990008C3011F08F3091F793FB882780F90895E0
:1029A00081E0203F39F018F4283E40F70895243F95
:1029B00029F7FCCF08950E94C71A0C94B214CF9344
:1029C000DF9300D000D00F92CDB7DEB70F900F90FD
:1029D0000F900F900F90DF91CF910895CF93DF93D9
:1029E00000D000D000D0CDB7DEB726960FB6F89451
:1029F000DEBF0FBECDBFDF91CF9108951F93CF9360
:102A0000DF93E091720116E0809173018E1304C090
:102A1000DF91CF911F910895CE2FD0E01E9FF0013E
:102A20001124EC58FE4F4081518162817381848171
:102A300095810E94EE14FE013196E770E5CF40913A
:102A4000A4015091A5016091A6017091A701809108
:102A5000A8019091A9010C94EE141F93CF93DF93DA
:102A60008091A901807FC1F48091A6018823A1F003
:102A700080917201C09173016091A4017091A501D0
:102A80004091A7015091A801D62FD723DA01A09534
:102A9000B09516E0C81304C0DF91CF911F9108953F
:102AA00090E04115510511F0DF3F31F40196877038
:102AB000F1CF2A0F3B1F17C0189FF001199FF00D8F
:102AC0001124EC58FE4F21812713F0CF20812613CB
:102AD000EDCF22812111EACF2381348124173507DC
:102AE00040F3241B350B2F3A310500F72091A90143
:102AF0002F7020612093A90126E0289FF001299FD3
:102B0000F00D1124E758FE4F80818F708061808323
:102B100084EA91E00E946E14DF91CF911F910C9492
:102B2000FE149F92AF92BF92CF92DF92EF92FF92EC
:102B30000F931F93CF93DF93CDB7DEB72B970FB6CD
:102B4000F894DEBF0FBECDBF8C0185E0F801DE0139
:102B5000179601900D928A95E1F7D8014C91119644
:102B60005C9111971296EC9012978091A701909129
:102B7000A801009709F46CC12091A4013091A5012E
:102B8000632F62236F3F09F463C11396CD90DC90ED
:102B90009090A601992009F4FAC0C816D90608F445
:102BA0003FC0F601E81BF90BCF01FF24F3948F3AE5
:102BB000910508F0F12C84EAA82E81E0B82E8091CE
:102BC000A901982F907FFF2009F4B9C0911180C00E
:102BD000FE2C35132AC0241328C0E11026C08F70A4
:102BE00080618093A9010E941F15C5010E946E1487
:102BF0008091A901D80115968C938F2D2B960FB635
:102C0000F894DEBF0FBECDBFDF91CF911F910F9122
:102C1000FF90EF90DF90CF90BF90AF909F9008957E
:102C2000809590958C0D9D1DC0CFCD2829F0842FC7
:102C300085238F3F09F028C180E0B82FB170DB2ECB
:102C4000E09172012091730136E080FD1CC0EE20FE
:102C5000A1F28091A90181608093A901F12CCDCFCF
:102C60008E2F90E03E9FF0011124EC58FE4F6181C1
:102C7000651306C06081641303C062816E11E7CFE3
:102C8000FC013196E770E213EBCF4F8358878F81B9
:102C900098850E94C71A292F22952F70903260F0D4
:102CA000225F2F70223078F49F7051F0F8019581E7
:102CB000907F31F4D12C0AC09F7011F08823D1F39A
:102CC000805E8830B8F3C8010E946E14FD2C95CF49
:102CD000351306C0241304C0D801EE2009F47CC0CB
:102CE0004F8358878F8198850E94DB14882319F1C0
:102CF000EE2009F18091A901803270F02091A401A9
:102D00003091A5013A8329831B82DD82CC828E8398
:102D1000CE0101960E946E1486E0F801A4EAB1E0AB
:102D200001900D928A95E1F70E942D150E941F15C2
:102D3000FF24F39462CFC8010E946E14F9CF911161
:102D400013C07C2DDB86CA866E2D8B850E94DF1416
:102D500084EA91E00E946E1486E0F50111928A9552
:102D6000E9F70E941F1549CF3513BACF2413B8CF06
:102D7000E110B6CFD80115968C93C8010E946E144D
:102D800086E0F50111928A95E9F7F92C36CFC8163D
:102D9000D90680F1B601681B790BCB01F12C8F3A73
:102DA000910508F046C0FE2CEE2029F2351330C004
:102DB00024132EC08091A90180FD21C0982F907FFF
:102DC000F1F0D80115968C931597903F39F0982F14
:102DD000907F905F8F70892B15968C93C8010E940D
:102DE0006E1486E0F801A4EAB1E001900D928A9594
:102DF000E1F7B7CF809590958C0D9D1DCFCF86E0E4
:102E0000F801A4EAB1E001900D928A95E1F7F5CEC0
:102E10004F8358878F8198850E94DB1481117CCF66
:102E20008091A90181608093A901C8010E946E145C
:102E3000E4CE7C2DDB86CA866E2D8B850E94DF1446
:102E400086E0E4EAF1E0DF011D928A95E9F789CF97
:102E5000EE2009F470CF4F8358878F8198850E94A8
:102E6000DB14F82E882309F466CF86E0F801A4EA83
:102E7000B1E001900D928A95E1F784EA91E00E9419
:102E8000DB100E942D156DCF81E08E25D6CE1F93CD
:102E9000CF93DF93CDB7DEB72C970FB6F894DEBF94
:102EA0000FBECDBF4F83588769877A878B879C87F2
:102EB000CE0107960E949115882369F08A859B852B
:102EC000892B39F04F815885842F85238F3F09F056
:102ED00071C016E05FC086E0FE013796DE011196F4
:102EE00001900D928A95E1F78A859B85892B89F35C
:102EF00088859F8189238F3F61F32091730130E0A2
:102F0000C9010196877099274091720148171906E7
:102F100071F40E94AE14109273011092720186E057
:102F2000E4EAF1E0DF011D928A95E9F7D2CF96E05D
:102F3000929FD001939FB00D1124AC58BE4FFE015B
:102F4000319601900D929A95E1F7809373010E945A
:102F5000FE14BFCF819FC00111248C589E4F0E9448
:102F600091158823E9F0E09172011E9FF001112470
:102F7000EC58FE4F4081518162817381848195813B
:102F80000E94EE148091720190E00196877099275B
:102F90008093720180917201909173018913DACF4D
:102FA0002C960FB6F894DEBF0FBECDBFDF91CF9148
:102FB0001F91089569857A858B859C850E94EE1402
:102FC00088CFEF92FF920F931F93CF93DF938C01E3
:102FD000892B89F0F12CEE24E394E8012196F80185
:102FE0008491843709F457C0A0F4823009F43EC0BC
:102FF00048F48130D1F0DF91CF911F910F91FF9074
:10300000EF9008959CEF980F9037A8F70E94E0107A
:103010000AC0853709F44CC09CE7980F903758F7E1
:103020008F770E9489118E0116C00E5F1F4FFE011F
:10303000849190E2980F983060F48770FE2D01C063
:10304000FF0F8A95EAF78F2F0E94471B0E94711B82
:1030500002C00E94E0108F2D815008F4BECFEFE92E
:10306000FFE03197F1F700C00000F6CF0E5F1F4F71
:10307000FE01849190E2980F983050F48770FE2DF5
:1030800001C0FF0F8A95EAF78F2F0E944D1BDECFFC
:103090000E948911E0CF0E5F1F4FFE01C491C15005
:1030A000D0F28FE99FE00197F1F700C00000F7CF61
:1030B0000E5F1F4FFE01F490CECF08950C945D1863
:1030C0000E945E186093FE017093FF0180930002DE
:1030D000909301020C94981408950C946018CF9367
:1030E000DF9300D000D0CDB7DEB769837A838B83BE
:1030F0009C838091FE019091FF01A0910002B0910C
:10310000010229813A814B815C81282B392B4A2B82
:103110005B2B29833A834B835C83CA01B9010F90EF
:103120000F900F900F90DF91CF910C946018CF9378
:10313000DF9300D000D0CDB7DEB769837A838B836D
:103140009C838091FE019091FF01A0910002B091BB
:10315000010229813A814B815C81282339234A234A
:103160005B2329833A834B835C83CA01B9010F90A7
:103170000F900F900F90DF91CF910C946018CF9328
:10318000DF9300D000D0CDB7DEB769837A838B831D
:103190009C838091FE019091FF01A0910002B0916B
:1031A000010229813A814B815C81282739274A27EE
:1031B0005B2729833A834B835C83CA01B9010F9053
:1031C0000F900F900F90DF91CF910C9460180C949A
:1031D0005D180C94E7180E94E9186093FA01709347
:1031E000FB018093FC019093FD010C94981460E026
:1031F00070E0CB010C94EB180F931F93CF93DF93E8
:1032000000D000D0CDB7DEB741E050E060E070E024
:103210008A019B0104C0000F111F221F331F8A95D2
:10322000D2F709831A832B833C83C901B8010F901D
:103230000F900F900F90DF91CF911F910F910C94F1
:10324000EB180F931F93CF93DF9300D000D0CDB72F
:10325000DEB741E050E060E070E004C0440F551F6D
:10326000661F771F8A95D2F78091FA019091FB0132
:10327000A091FC01B091FD018A019B01082B192B43
:103280002A2B3B2B09831A832B833C83C901B8016A
:103290000F900F900F900F90DF91CF911F910F9192
:1032A0000C94EB180F931F93CF93DF9300D000D0B3
:1032B000CDB7DEB741E050E060E070E004C0440FFD
:1032C000551F661F771F8A95D2F7409550956095D8
:1032D00070958091FA019091FB01A091FC01B09151
:1032E000FD018A019B01082319232A233B2309831B
:1032F0001A832B833C83C901B8010F900F900F9064
:103300000F90DF91CF911F910F910C94EB180F93B9
:103310001F93CF93DF9300D000D0CDB7DEB741E04D
:1033200050E060E070E004C0440F551F661F771F37
:103330008A95D2F78091FA019091FB01A091FC014E
:10334000B091FD018A019B01082719272A273B27F5
:1033500009831A832B833C83C901B8010F900F9016
:103360000F900F90DF91CF911F910F910C94EB185C
:10337000CF93DF9300D000D0CDB7DEB769837A83D7
:103380008B839C838091FA019091FB01A091FC01B9
:10339000B091FD0129813A814B815C81282B392B29
:1033A0004A2B5B2B29833A834B835C83CA01B90187
:1033B0000F900F900F900F90DF91CF910C94EB181E
:1033C000CF93DF9300D000D0CDB7DEB769837A8387
:1033D0008B839C838091FA019091FB01A091FC0169
:1033E000B091FD0129813A814B815C8128233923E9
:1033F0004A235B2329833A834B835C83CA01B90147
:103400000F900F900F900F90DF91CF910C94EB18CD
:10341000CF93DF9300D000D0CDB7DEB769837A8336
:103420008B839C838091FA019091FB01A091FC0118
:10343000B091FD0129813A814B815C812827392790
:103440004A275B2729833A834B835C83CA01B901EE
:103450000F900F900F900F90DF91CF910C94EB187D
:1034600008959295907FE92FE80F877041E001C0A1
:10347000440F8A95EAF7E695E695E69585E0E89F9C
:10348000F0011124E655FE4F30E020E070E051914C
:10349000DF011197CB01022E02C0969587950A9401
:1034A000E2F7817081958527842385278C932F5F90
:1034B0003F4F2530310559F70895E92FE295E07F18
:1034C000E80F982F9770E695E695E69585E0E89FDA
:1034D000F0011124E655FE4F50E040E080E02191DC
:1034E00030E0092E02C0369527950A94E2F7217044
:1034F0003327042E01C0220F0A94EAF7822B4F5F74
:103500005F4F4530510559F70895BF92CF92DF9232
:10351000EF92FF920F931F93CF93DF938C01C09094
:10352000FA01D090FB01E090FC01F090FD01809148
:10353000FE019091FF01A0910002B0910102C82A02
:10354000D92AEA2AFB2ACFE1D0E0BC2ED701C60156
:103550000C2E04C0B695A795979587950A94D2F737
:1035600080FD0EC0219788F7B12C8B2DDF91CF9174
:103570001F910F91FF90EF90DF90CF90BF90089533
:10358000B8018C2F0E94C20B019761F3EECFCF934D
:10359000DF93D82FC92F0E94851A6D2F7C2FDF91C2
:1035A000CF910C94C20B1F93CF93DF93162FD72F7D
:1035B00090917101992339F0862F972FDF91CF9148
:1035C0001F910C94C71A882391F0862F972F0E9481
:1035D000851AC82F682F812F9D2F0E94311A612FC5
:1035E0007D2F8C2FDF91CF911F910C94C20B862FD2
:1035F000972F0E945D1AC82FF2CF682F809100018B
:10360000909101010C94261D682F809100019091EA
:1036100001010C94311D80910001909101010C94E5
:103620003C1D809102028595859585950895809130
:1036300002028770089590910202977081E009F468
:1036400080E0089580912602089590912602982B9B
:10365000909326020895982F9095809126028923B1
:1036600080932602089510922602089590912502D3
:10367000982B909325020895982F9095809125027C
:103680008923809325020895109225020895909130
:103690002402982B909324020895982F909580915E
:1036A000240289238093240208951092240208950D
:1036B00080910302089508950C945B1B909103027E
:1036C000981721F0809303020C945C1B089580915D
:1036D0000302882329F01092030280E00C945C1B03
:1036E0000895E0910001F09101018091260280830C
:1036F000E0910001F0910101808190912502892BD8
:103700008083E0910001F091010180819091240279
:10371000892B808390910302992381F0E09100012D
:10372000F09101018081892B80838091000190912B
:1037300001010E949E1C81110E94671B8091000163
:10374000909101010C941C0F08950C94A41B98E017
:10375000899F90011124622B609302020E9421191B
:10376000809102028595859585950C94A51B1092F4
:10377000020280E00C94A51B90910202809589239F
:1037800080930202282F277071F4282F082E000C36
:10379000330B9217130639F08595859585950E9410
:1037A00052190C94B71B089590932F0180932E010A
:1037B0000895829594E0899F900111242C7C869530
:1037C00086958373282B30E0C901880F991F8A7A68
:1037D000359527952575822B0895CF93DF93D92FA3
:1037E0000E94D91BC82F8D2F0E94D91B9C2FDF91BF
:1037F000CF91089590E080E00E94672E9C0181E0C7
:103800002C3E3E4F09F080E0089582E090E00C9459
:103810005F2E83E090E00C945F2ECF9384E090E0E5
:103820000E945F2EC82F81E290E00E945F2E982FA9
:103830008C2FCF910895CF93682FC92F84E090E00B
:103840000E946D2E6C2F81E290E0CF910C946D2E32
:10385000AB01BC018FE090E00C947F2EAB01BC016A
:1038600083E190E00C947F2E60E070E0CB010C943B
:103870002E1C60E070E0CB010E94281C0C94341CCC
:103880006CEE7EEF90E080E00E948B2E60E082E0A4
:1038900090E00E946D2E60E083E090E00E946D2E2B
:1038A0001092FE011092FF0110920002109201028C
:1038B00060E084E090E00E946D2E60E081E290E0A4
:1038C0000E946D2E60E085E090E00E946D2E60E029
:1038D00086E090E00E946D2E6FEF87E090E00E94FE
:1038E0006D2E40E050E0BA0188E090E00E947F2E0B
:1038F00060E08DE090E00E946D2E40E050E0BA0163
:1039000088E190E00E947F2E60E087E190E00E94D5
:103910006D2E40E050E0BA018CE190E00E947F2ED5
:1039200060E080E290E00E946D2E0C94391C0C94B3
:10393000401C682F8EE090E00C946D2EFC013296B6
:1039400080911201882321F0809171029EE187FF0E
:1039500096E080E0915008F4089521912223D1F35C
:103960008F5FF8CF9C01FC0132968FEF90E0419180
:10397000461751F08F3F19F4411101C0892F9F5F05
:103980009630A9F78F3F09F40895280F311D87FD60
:103990003A95F901628308959C01FC013296285FF3
:1039A0003F4F8191861303C0DF0111971C92E217EC
:1039B000F307B9F70895E62FE695E695E695603F9B
:1039C00070F4E80FF92FF11D677021E030E001C0BD
:1039D000220F6A95EAF78281822B82830895809173
:1039E000270280FF0CC01F926F9386E493E09F93A1
:1039F0008F930E9424080F900F900F900F900895BE
:103A0000E62FE695E695E695603F78F4E80FF92F06
:103A1000F11D677081E090E001C0880F6A95EAF7B8
:103A2000809592818923828308958091270280FF67
:103A30000CC01F926F9388E293E09F938F930E9434
:103A400024080F900F900F900F900895209112016D
:103A5000222329F02091710227FD0C94DB1C0C9489
:103A6000B21C20911201222329F02091710227FD1E
:103A70000C94001D0C94CC1CFC0132968091120118
:103A8000882351F08091710287FF06C08EE1DF012B
:103A90001D928A95E9F7089586E0F9CF0895089573
:103AA0000C944F1D0E94501D80917702843049F183
:103AB0001092280288E190E020E40FB6F894A895CF
:103AC000809360000FBE2093600080E00E943B0A5C
:103AD0000E94501D83B7817F846083BF83B781605C
:103AE00083BF7894889583B78E7F83BF0FB6F89491
:103AF000A8958091600088618093600010926000BA
:103B00000FBE08950895CF930E944E1D0E947D0818
:103B10000E94821DC0E08C2F0E944609892B31F43F
:103B2000CF5FC830C1F780E0CF91089581E0FCCF2E
:103B300008950C94981D0E94AE140E94100F0E94CC
:103B40003B0A0C94991D1F921FB61F9211248F934C
:103B50009F93AF93BF9380912802811113C08091EE
:103B60006D0290916E02A0916F02B0917002419629
:103B7000A11DB11D80936D0290936E02A0936F0200
:103B8000B0937002BF91AF919F918F911F901FBE14
:103B90001F90189582E084BD93E095BD9AEF97BD84
:103BA00080936E0008952FB7F89480916D029091E4
:103BB0006E02A0916F02B09170022FBF0895CF9353
:103BC000DF9300D000D0CDB7DEB78FB7F894209147
:103BD0006D0230916E0240916F0250917002298304
:103BE0003A834B835C838FBF69817A818B819C810F
:103BF0000F900F900F900F90DF91CF910895CF927B
:103C0000DF92EF92FF929C014FB7F89480916D0282
:103C100090916E02A0916F02B09170024FBF6C0143
:103C20007D01EE24FF24A90170E060E0C416D506F2
:103C3000E606F70638F0821B930BFF90EF90DF90BB
:103C4000CF9008950197F7CF78941F921FB61F92D7
:103C500011248F939F93AF93BF9380916D029091A6
:103C60006E02A0916F02B09170020196A11DB11D6C
:103C700080936D0290936E02A0936F02B0937002D6
:103C8000BF91AF919F918F911F901FBE1F9018956C
:103C900081E08093E00080E28093D8001092C90018
:103CA0008FE19EE40197F1F700C0000087E090EB00
:103CB000DC018093800290938102A0938202B093F2
:103CC000830288E19CE00FB6F894A8958093600089
:103CD0000FBE90936000FFCFCF93DF9300D000D052
:103CE000CDB7DEB70E94FA1B811102C00E94971C5B
:103CF0000E94051C809327020E940D1C9093720263
:103D0000809371020E94091C282F30E050E040E0AF
:103D100029833A834B835C83CA01B9010F900F90CA
:103D20000F900F90DF91CF910C946D1880912C0221
:103D300080FF12C06091050185E0689FB0011124E9
:103D4000759567957595679560387105A8F5611546
:103D50007105A1F1862F089581FF09C060910501C9
:103D600085E0689FB001112475956795EDCF60914E
:103D7000050182FD0AC080912B028823D1F0909129
:103D8000040160910501891728F085E0689FB00162
:103D90001124DACF869FB001112485E0869F90011F
:103DA000879F300D1124692F70E0C9010E94312EC8
:103DB000CBCF65E070E0CECF8FE7089581E0089526
:103DC00080912C0280FF0CC06091030170E075951A
:103DD0006795759567956115710549F1862F089569
:103DE00081FF06C06091030170E075956795F3CF80
:103DF0006091030182FD0BC090912B029923A1F0E9
:103E00006091020180910301961738F0682F70E0ED
:103E10006038710500F38FE70895899FC001112470
:103E200070E00E94312EF4CF61E070E0D7CF81E0E6
:103E30000895803F31F40E94961E81958093300250
:103E40000895813F19F40E94961EF8CF823F31F405
:103E50000E94961E819580932F020895833F19F446
:103E60000E94961EF8CF893F29F40E94E01E80939D
:103E7000310208958A3F21F40E94E01E8195F7CF18
:103E80008B3F31F40E94E01E8195809332020895A9
:103E90008C3F19F40E94E01EF8CF843F31F48091EA
:103EA0002E02816080932E020895853F21F4809137
:103EB0002E028260F7CF863F21F480912E0284602B
:103EC000F1CF873F21F480912E028860EBCF883FAD
:103ED00021F480912E028061E5CF8D3F31F48091F5
:103EE0002C02816080932C0208958E3F21F48091F2
:103EF0002C028260F7CF8F3FB9F780912C0284604B
:103F0000F1CF90912F02803F41F48091300287FDE4
:103F100010923002992371F00895813F29F4809125
:103F200030021816ACF3F6CF823F81F497FFF2CF40
:103F300010922F028091300290913102892B909142
:103F40003202892B49F710922B020895833F19F40E
:103F5000191674F3DFCF893F39F4809131021816B6
:103F6000CCF610923102D6CF8A3F29F480913102EB
:103F700087FFD0CFF6CF8B3F39F48091320287FF95
:103F8000C9CF10923202C6CF8C3F29F48091320201
:103F90001816BCF3BFCF843F31F480912E028E7F80
:103FA00080932E02B7CF853F21F480912E028D7F22
:103FB000F7CF863F21F480912E028B7FF1CF873F90
:103FC00021F480912E02877FEBCF883F21F48091EE
:103FD0002E028F7EE5CF8D3F31F480912C028E7FB3
:103FE00080932C0297CF8E3F21F480912C028D7FFD
:103FF000F7CF8F3F09F08ECF80912C028B7FF0CFCF
:104000008091270283FF7EC08BE893E00E948B079C
:1040100080912E021F928F9386E893E09F938F9357
:104020000E94240884E893E00E948B0780912F026D
:10403000282F082E000C330B3F938F9381E893E0D9
:104040009F938F930E9424088FE793E00E948B0731
:1040500080913002282F082E000C330B3F938F9352
:104060008CE793E09F938F930E9424088AE793E064
:104070000E948B0780913102282F082E000C330BF1
:104080003F938F9387E793E09F938F930E94240839
:1040900085E793E00E948B0780913202282F082E3B
:1040A000000C330B3F938F9382E793E09F938F93A2
:1040B0000E9424088FE693E00E948B0780912B02D8
:1040C0001F928F938CE693E09F938F930E94240816
:1040D0008AE693E00E948B0780912C021F928F93B7
:1040E00087E693E09F938F930E94240884E693E0F1
:1040F0000E948B078DB79EB74C960FB6F8949EBF63
:104100000FBE8DBF8DE292E00E94770F0E94D31DFB
:1041100090932A028093290208951F93CF93DF93EF
:104120008091290290912A020E94FF1DAC0180918A
:104130002B022091060130E0811106C02091070179
:104140009AE0299F900111244217530778F020919B
:104150002F02C091300210913102D0913202211110
:1041600009C09C2F912B9D2B09F06AC0DF91CF9144
:104170001F9108958F3F19F08F5F80932B021216C5
:1041800024F40E94961E80932F0280912F0287FFB5
:1041900005C00E94961E819580932F021C1624F460
:1041A0000E94961E809330028091300287FF05C0E6
:1041B0000E94961E81958093300230912F02332306
:1041C000A1F020913002222381F045EB3403C0019D
:1041D0001124992369F190932F0245EB2403900158
:1041E0001124332349F130933002111624F40E9434
:1041F000E01E809331028091310287FF05C00E944A
:10420000E01E8195809331021D1624F40E94E01E69
:10421000809332028091320287FF05C00E94E01E27
:10422000819580933202DF91CF911F910C940020F1
:1042300081E080932F02D1CF81E080933002D5CFEF
:104240008F3F09F099CFAACF86E0EDE2F2E0DF01DF
:104250001D928A95E9F710922B0210922C02089574
:104260008EEA95E00E948B071F9281E08F931F9248
:1042700085E08F9380E695E09F938F930E942408BA
:104280000F900F900F900F900F900F900895843023
:1042900009F45DC040F4823061F1833009F440C01C
:1042A000813041F00895853009F468C0863009F402
:1042B0007CC0089580910701482F460F5527551F50
:1042C0004F3F510594F4680F6093070180910701F7
:1042D0001F928F9389E994E09F938F930E94240803
:1042E0000F900F900F900F9008958FEF809307011C
:1042F000EDCF80910601482F460F5527551F4F3FA0
:10430000510554F4680F60930601809106011F92D5
:104310008F9387E894E0E0CF8FEF80930601F5CF8D
:1043200080910501482F460F5527551F4F3F5105D6
:1043300054F4680F60930501809105011F928F93DB
:1043400084E794E0C9CF8FEF80930501F5CF80918A
:104350000401482F460F5527551F4F3F510554F470
:10436000680F60930401809104011F928F938FE581
:1043700094E0B2CF8FEF80930401F5CF80910301D9
:10438000482F460F5527551F4F3F510554F4680FCE
:1043900060930301809103011F928F9386E494E060
:1043A0009BCF8FEF80930301F5CF80910201482FBF
:1043B000460F5527551F4F3F510554F4680F609322
:1043C0000201809102011F928F938BE294E084CFCF
:1043D0008FEF80930201F5CF843009F44AC038F49E
:1043E000823029F18330A1F1813041F00895853088
:1043F00009F450C0863009F45EC008958091070129
:10440000681790F4861B80930701809107011F9223
:104410008F938CE194E09F938F930E9424080F90D8
:104420000F900F900F90089510920701EECF80919A
:104430000601681750F4861B8093060180910601DF
:104440001F928F938AE094E0E6CF10920601F6CF98
:1044500080910501681750F4861B809305018091B7
:1044600005011F928F9387EF93E0D5CF109205013E
:10447000F6CF80910401681750F4861B80930401E5
:10448000809104011F928F9382EE93E0C4CF10922B
:104490000401F6CF80910301681750F4861B8093C6
:1044A0000301809103011F928F9389EC93E0B3CFB6
:1044B00010920301F6CF80910201681750F4861B19
:1044C00080930201809102011F928F938EEA93E004
:1044D000A2CF10920201F6CFCF93DF9300D000D08D
:1044E000CDB7DEB789831F928F9383EB96E09F93BE
:1044F0008F930E94240881E090E0A0E0B0E09C014E
:10450000AD01098004C0220F331F441F551F0A94B8
:10451000D2F729833A834B835C83CA01B9010E9495
:104520006D180F900F900F900F900F900F900F90AD
:104530000F90DF91CF910C94AE14CF93DF93EBEFFC
:10454000E80FEF3308F04FC2F0E0E153F14D0C9467
:10455000452E83E69CE00E948B078FE99BE00E943A
:104560008B070E94091C1F928F938CE99BE09F93FD
:104570008F930E9424088AE99BE00E948B070E9487
:10458000051CC82F87E89BE00E948B071F92CF93E2
:1045900082E89BE09F938F930E94240880E89BE031
:1045A0000E948B0786E79BE00E948B078C2F81700F
:1045B0001F928F9383E79BE09F938F930E94240821
:1045C00081E79BE00E948B0787E69BE00E948B07B8
:1045D000C1FB882780F91F928F9384E69BE09F930D
:1045E0008F930E94240882E69BE00E948B0786E559
:1045F0009BE00E948B07C2FB882780F91F928F9354
:1046000083E59BE09F938F930E94240881E59BE0C4
:104610000E948B0788E49BE00E948B07C3FBCC279A
:10462000C0F91F92CF9385E49BE09F938F930E94E4
:10463000240883E49BE00E948B070E940D1CEC0180
:104640008FE29BE00E948B07DF93CF938AE29BE08F
:104650009F938F930E94240888E29BE00E948B071F
:104660008FE09BE00E948B078C2F81701F928F93AD
:104670008CE09BE09F938F930E9424088DB79EB798
:1046800080960FB6F8949EBF0FBE8DBF8AE09BE068
:104690000E948B0783EF9AE00E948B07C1FB88275B
:1046A00080F91F928F9380EF9AE09F938F930E94DF
:1046B00024088EEE9AE00E948B078CED9AE00E940F
:1046C0008B078D2F81701F928F9389ED9AE09F93B6
:1046D0008F930E94240887ED9AE00E948B0785EC57
:1046E0009AE00E948B07D695D1701F92DF9382ECDF
:1046F0009AE09F938F930E94240880EC9AE00E9496
:104700008B078EEA9AE00E948B07C2FB882780F90C
:104710001F928F938BEA9AE09F938F930E942408B5
:1047200089EA9AE00E948B0787E99AE00E948B074A
:10473000C3FB882780F91F928F9384E99AE09F93A7
:104740008F930E94240882E99AE00E948B0788E8F0
:104750009AE00E948B07C4FB882780F91F928F93F1
:1047600085E89AE09F938F930E94240883E89AE05B
:104770000E948B0781E79AE00E948B07C5FB882780
:1047800080F91F928F938EE69AE09F938F930E94F9
:1047900024088CE69AE00E948B0780E59AE00E944C
:1047A0008B07C6FB882780F91F928F938DE49AE0D0
:1047B0009F938F930E9424088DB79EB780960FB663
:1047C000F8949EBF0FBE8DBF8BE49AE00E948B07CA
:1047D00083E49AE00E948B07C7FBCC27C0F91F92A5
:1047E000CF9380E49AE09F938F930E9424088EE3F6
:1047F0009AE00E948B070F900F900F900F9081E02E
:104800001CC082E59CE00E948B070E94971CF7CF9A
:104810008CE898E00E948B07F2CF80912702807F7E
:104820008093270285E698E00E948B078EE49CE047
:104830000E948B0781E080933402DF91CF9108952D
:104840000E94AE1482E39CE00E948B079FEF23ED51
:1048500080E3915020408040E1F700C000000E94BA
:10486000481ECDCF90912702892F8E7F90FF8160C7
:104870008093270280FF03C086E29CE0CBCF89E1D2
:104880009CE00E948B0780912702817F8093270202
:10489000B6CF90912702892F8D7F91FF8260809300
:1048A000270281FF08C08CE09CE00E948B0780916A
:1048B00027028160EBCF8EEF9BE0ACCF9091270277
:1048C000892F8B7F92FF84608093270282FF03C031
:1048D0008FEE9BE0EACF8FED9BE09CCF909127027B
:1048E000892F877F93FF88608093270283FF03C00F
:1048F00083ED9BE0DACF86EC9BE08CCF86E598E0F9
:104900000E948B0785E198E00E948B0782ED97E07B
:104910000E948B078FE997E00E948B0784E697E05F
:104920000E948B0789E397E075CF8BE297E00E94A6
:104930008B070E94100F1F928F9381E197E09F9346
:104940008F930E942408809112011F928F938AEF07
:1049500096E09F938F930E942408809159021F92A2
:104960008F9387EE96E09F938F930E942408809107
:10497000710287FB882780F91F928F938FEC96E056
:104980009F938F930E9424080E94DF1D9F938F9313
:104990007F936F9388EB96E09F938F930E942408F8
:1049A0008DB79EB746960FB6F8949EBF0FBE8DBFCB
:1049B00026CF0E94AE1490917102892F97FB87F940
:1049C00080588093710287FF03C08CEB9BE022CF5D
:1049D00081EB9BE01FCF80E00E946C2210CF8953B7
:1049E000FBCF8D51F9CF8FEA9BE00E948B0780E0CF
:1049F00024CF80E008950C94F9248E518A3030F44D
:104A0000E82FF0E0EC5EFE4F8081089580E008958D
:104A1000CF93C82F809134028130A9F0823009F4FD
:104A200046C0811136C10E94221B823209F033C177
:104A30008C2F0E94F92481111BC08C2F0E949D2273
:104A40008170CF9108950E94221B823289F38C2FAE
:104A50000E94FB2481111BC0C431D9F060F4CB301B
:104A600071F0C031D1F089EA96E00E948B0713C043
:104A700081E090E0E5CFC93261F0C833A1F785E667
:104A800098E00E948B078FEA96E00E948B0781E0F6
:104A9000D7CF1092340280E0D3CF0E9430218BEA2E
:104AA00096E00E948B0782E080933402F0CFC932F7
:104AB00009F445C060F5C33109F450C050F4C73063
:104AC00009F4CDC0CB30C1F18DE495E00E948B0795
:104AD0001CC0C431A1F182EE8C0F8630A8F78C2F58
:104AE0000E94FD248093330280913302882309F4CD
:104AF000CDC01F928F9387E495E09F938F930E9480
:104B000024080F900F900F900F9081E09ACFCE3431
:104B100009F4A3C050F4C83379F06AE0CB34A1F6AD
:104B2000809133020E944721DFCFC13509F48FC045
:104B300061E0C235A9F3C8CF0E943021D5CF809162
:104B40003302882319F010923302CECF8CE595E022
:104B50000E948B0781E08093340273CF86E395E057
:104B60000E948B0784E295E00E948B0780910701E9
:104B70001F928F9381E295E09F938F930E94240868
:104B80008FE195E00E948B078DE095E00E948B07F6
:104B9000809106011F928F938AE095E09F938F93F7
:104BA0000E94240888E095E00E948B0789EF94E03A
:104BB0000E948B07809105011F928F9386EF94E0EE
:104BC0009F938F930E94240884EF94E00E948B07A8
:104BD00083EE94E00E948B07809104011F928F93D3
:104BE00080EE94E09F938F930E9424088EED94E0D2
:104BF0000E948B0789EC94E00E948B07809103014F
:104C00001F928F9386EC94E09F938F930E942408C9
:104C100084EC94E00E948B078DEA94E00E948B075D
:104C2000809102011F928F938AEA94E09F938F9361
:104C30000E94240888EA94E00E948B078DB79EB7F3
:104C400048960FB6F8949EBF0FBE8DBF4DCF61E062
:104C5000809133020E94EC2147CF6AE0F9CF8EE1C8
:104C60008093070182E3809306018AE08093050127
:104C700084E18093040188E08093030188E28093BB
:104C800002018FE495E00E948B072ECF84E495E02B
:104C90001DCF1092340280E0D4CE80915802089546
:104CA0009FB7F894109237029FBF9091770294308B
:104CB00009F048C02091E9002F703091EC00932F4B
:104CC000917030FD90E8922B23E02093E900209131
:104CD000EB0020FF34C02091EE0027FF30C0209170
:104CE0003502222321F02091E80025FF28C01092F0
:104CF000350226E03091E80035FF14C08093F100C2
:104D00008091E80085FD27C08091E80080FFFCCFFE
:104D10008091E8008E778093E8009F709093E9007F
:104D200080E0089530917702343049F43091EB00FF
:104D300035FD05C0215041F481E0809335029F701C
:104D40009093E9008FEF0895EFE9FFE03197F1F7D5
:104D500000C00000CFCF8FB7F89421E02093370236
:104D60008FBFDBCF0F931F93CF93DF9300D00F92B2
:104D7000CDB7DEB78C010E948129823011F08430DA
:104D800021F584E089830A831B8382E08093E90014
:104D90008FEF9091E800815095FD06C095ED9A95B2
:104DA000F1F700008111F5CF8091E80085FF0DC07B
:104DB00050E040E063E070E0CE0101960E949E2941
:104DC0008091E8008E778093E8000F900F900F900D
:104DD000DF91CF911F910F910895CF93DF9300D072
:104DE0000F92CDB7DEB79C0180917702843031F508
:104DF00083E08983205831093B832A8382E08093B2
:104E0000E9008FEF9091E800815095FD06C095ED87
:104E10009A95F1F700008111F5CF8091E80085FFA8
:104E20000DC050E040E063E070E0CE0101960E94CA
:104E30009E298091E8008E778093E8000F900F9074
:104E40000F90DF91CF910895CF93DF93D82FC92F83
:104E50000E948129823011F0843001F582E0809334
:104E6000E9008FEF9091E800815095FD06C095ED27
:104E70009A95F1F700008111F5CF8091E80085FF48
:104E80000DC050E040E066E070E08D2F9C2F0E9446
:104E90009E298091E8008E778093E800DF91CF9182
:104EA0000895CF93DF93D82FC92F0E948129823094
:104EB00011F08430C9F5809112018823C1F18091ED
:104EC000710287FF34C060E282E08093E9008FEFD7
:104ED0009091E800815095FD06C095ED9A95F1F707
:104EE00000008111F5CF8091E80085FF1DC0809101
:104EF000120170E050E040E0811104C050E040E059
:104F000068E070E08D2F9C2F0E949E298091E80020
:104F10008E778093E80080E2ED2FFC2FA8E3B2E0CB
:104F200001900D928A95E1F7DF91CF91089568E0A5
:104F300081E0CBCF83E99CE00E948B0780917602D1
:104F4000811109C00E94262B0E94832B8091E200D0
:104F500084608093E20008958FE89CE00E948B07B4
:104F60001092760208958BE89CE00C948B0787E8FA
:104F70009CE00C948B0783E89CE00E948B070C94C8
:104F80009B1D209136022F5F822F62E30E94252E07
:104F9000992319F0209336020895109236028091D9
:104FA00037028823F1F0809177028430C1F4909128
:104FB000E9009F702091EC00822F817020FD80E835
:104FC000892B93E09093E9009091EB0090FF04C04F
:104FD0009091EE0097FD08C08F708093E9001092C9
:104FE000370208951092F1009091E80095FDFACFF4
:104FF0009091E80090FFF0CF9091E8009E77909319
:10500000E800EACF42E061EC81E00E94A22A42E29D
:1050100061EC82E00E94A22A42E261EC83E00C94FF
:10502000A22A80917902893089F148F4823009F40A
:105030009DC0833009F458C0813041F008958A3012
:1050400009F484C08B3009F46AC008958091780215
:10505000813A09F048C08091E800877F8093E8009A
:1050600080917C0290917D02892B61F460E288E35B
:1050700092E070E00E94ED298091E8008B778093A8
:10508000E800089560E090E080E0F3CF809178023E
:10509000813249F580917C0290917D02029718F54A
:1050A0008091E800877F8093E8008091E80082FF8C
:1050B00016C09091F3008091F200029729F480913C
:1050C000F1008B7F813021F48091F10080935802B0
:1050D0008091E8008B778093E8000C94D62A809129
:1050E00077028111E2CF089580917802813AD9F751
:1050F00080917C0290917D02892BA9F78091E80034
:10510000877F8093E8008091E80080FFFCCF80914A
:1051100012018093F1008091E8008E77DCCF8091BE
:105120007802813201F780917C0290917D02892B77
:10513000D1F68091E800877F8093E8000E94D62A0C
:1051400080917A02809312010C94AE1480917802BF
:10515000813249F68091E800877F8093E8000E94C1
:10516000D62A80917B02809359020895809178021B
:10517000813A09F0B8CF8091E800877F8093E800FA
:105180008091E80080FFFCCF80915902C2CF84B7A4
:10519000877F84BF0FB6F894A895809160008861DE
:1051A00080936000109260000FBE80E880936100E1
:1051B000109261000E94C00F0E94262B0E94832B38
:1051C0008091E20084608093E20080E596E20E9494
:1051D000D41B78940E940A2E0E94C80F88E091E0A8
:1051E0000E940B0F82E79CE00E948B078091770260
:1051F000853019F00E94F80FF9CF8EE69CE00E94EE
:105200008B070E94521D80917502882379F30E94BA
:10521000831D882359F30E948829E8CF0C94102914
:10522000FC01CB01DA012F2F332723303105D1F0D8
:1052300070F42130310509F44EC02230310569F493
:105240008BE590E02DED3CE02D933C9308952132C9
:10525000310521F12232310571F190E080E030E03A
:1052600020E0F2CFCF019927E230A9F083309105F9
:1052700050F4009769F0EFECFCE0019771F784912E
:1052800090E09F01E1CFE7E9FCE00397C1F3E5CFB0
:10529000E9EDFCE0F4CFEDE9FCE0F1CF633071051E
:1052A000E0F6880F991FFC01E95DFE4F20813181F6
:1052B00089E090E0C9CF6330710578F6FB01EE0F0D
:1052C000FF1FEF5DFE4F20813181825E9E4FFC010A
:1052D000808190E0B9CF82E190E028E33DE0B4CF57
:1052E0000895CF93C82F0E947029C0935A02CF917E
:1052F000089580917702843011F482E0089581E06E
:10530000089580915A02811102C00C947929089560
:1053100080E189BD82E189BD09B400FEFDCF8091A5
:10532000D8008F7D8093D8008091E00082608093C8
:10533000E0008091E00081FDFCCF0895AF92BF9224
:10534000CF92DF92FF920F931F93CF93DF936C0165
:10535000EB018A010E94F52AF82E811123C0011564
:10536000110539F0F80180819181C81BD90BC80E55
:10537000D91EB12CA12C2097A9F08091E80085FDC1
:1053800022C08091E8008E778093E8000115110516
:10539000A1F0F80180819181A80EB91EB182A0828E
:1053A00085E0F82E8F2DDF91CF911F910F91FF9007
:1053B000DF90CF90BF90AF9008950E94F52A882388
:1053C000D1F2F82EEFCFF60181916F018093F100B9
:1053D0002197FFEFAF1ABF0ACECFFC01CB0120917E
:1053E0007E0230917F022617370790F0009729F44C
:1053F0002091E8002E772093E80040E0009751F4D8
:10540000411108C08091E80082FF31C080E008951A
:10541000C901F3CF209177022223A9F12530A9F108
:105420002091E80023FD2DC02091E80022FDEACF65
:105430002091E80020FFE2CF3091F3002091F200AC
:10544000009719F02830310558F041E02830310537
:1054500009F040E02091E8002E772093E800CECFBD
:1054600041914093F10001972F5F3F4FE9CF809129
:105470007702882341F0853041F08091E80083FF76
:10548000C1CF81E0089582E0089583E00895FC0192
:10549000CB0120917E0230917F022617370790F0D2
:1054A000009729F42091E8002E772093E80040E04F
:1054B000009751F4411108C08091E80082FF32C08A
:1054C00080E00895C901F3CF209177022223B1F142
:1054D0002530B1F12091E80023FD2EC02091E80095
:1054E00022FDEACF2091E80020FFE2CF3091F300C7
:1054F0002091F200009719F02830310558F041E072
:105500002830310509F040E02091E8002E77209303
:10551000E800CECF44914093F100319601972F5F80
:105520003F4FE8CF80917702882341F0853041F0EA
:105530008091E80083FFC0CF81E0089582E0089564
:1055400083E00895982F973028F08F708093E900BA
:1055500081E008959093E900242F762F50E098176A
:1055600031F07091EC002091ED005091F00021FDA0
:1055700002C09F5FE8CF3091EB003E7F3093EB009D
:105580003091ED003D7F3093ED003091EB003160C4
:105590003093EB007093EC002093ED005093F000FB
:1055A0002091EE0027FDE5CF80E0089580917802FC
:1055B00087FF13C08091E80082FF06C08091E80059
:1055C0008B778093E80004C0809177028111F2CF3D
:1055D0000895809177028823D9F38091E80080FFB5
:1055E000F8CF8091E8008E77ECCF2091E4003091E5
:1055F000E50095E6A9012091EC00822F817020FF43
:1056000006C08091E80080FF06C080E008952091E8
:10561000E80022FD1AC080917702882389F0853046
:1056200089F08091EB0085FD0FC02091E40030915E
:10563000E50042175307F9F29150E1F684E008952E
:1056400082E0089583E0089581E008950E94942BFC
:105650000E949C2BE0EEF0E0808181608083E8ED89
:10566000F0E080818F77808319BCA7EDB0E08C914A
:105670008E7F8C9380818F7E808310927602089536
:105680000F931F93CF93DF930E94942B0E949C2B28
:10569000C8EDD0E088818F7788838881806888838F
:1056A00088818F7D888319BC1092770210927302D3
:1056B000109275021092740200EE10E0F8018081E1
:1056C0008B7F808388818160888342E060E080E016
:1056D0000E94A22AE1EEF0E080818E7F8083E2EEDC
:1056E000F0E0808181608083808188608083F80120
:1056F00080818E7F8083888180618883DF91CF91D4
:105700001F910F910895E8EDF0E080818F7E8083F6
:10571000E7EDF0E080818160808384E082BF81E0FA
:10572000809376020C94402BE8EDF0E080818E7F30
:1057300080831092E20008951092DA001092E10046
:1057400008951F920F920FB60F9211242F933F933B
:105750004F935F936F937F938F939F93AF93BF9379
:10576000EF93FF938091E10082FF0BC08091E200F4
:1057700082FF07C08091E1008B7F8093E1000E944F
:10578000C1278091DA0080FF19C08091D80080FF86
:1057900015C08091DA008E7F8093DA008091D90065
:1057A00080FF94C080E189BD82E189BD09B400FE1B
:1057B000FDCF81E0809377020E949A278091E100DB
:1057C00080FF19C08091E20080FF15C08091E20047
:1057D0008E7F8093E2008091E20080618093E200FE
:1057E0008091D80080628093D80019BC85E08093B6
:1057F00077020E94B7278091E10084FF29C0809141
:10580000E20084FF25C080E189BD82E189BD09B441
:1058100000FEFDCF8091D8008F7D8093D8008091CD
:10582000E1008F7E8093E1008091E2008F7E809383
:10583000E2008091E20081608093E2008091730237
:10584000882309F449C084E0809377020E94BB2733
:105850008091E10083FF29C08091E20083FF25C091
:105860008091E100877F8093E10082E0809377025E
:10587000109273028091E1008E7F8093E10080910D
:10588000E2008E7F8093E2008091E200806180934D
:10589000E20042E060E080E00E94A22A8091F000F5
:1058A00088608093F0000E94B327FF91EF91BF9131
:1058B000AF919F918F917F916F915F914F913F91A8
:1058C0002F910F900FBE0F901F90189519BC10923A
:1058D00077020E94AC2772CF8091E30087FD02C05F
:1058E00081E0B2CF83E0B0CF1F920F920FB60F923C
:1058F00011242F933F934F935F936F937F938F93D5
:105900009F93AF93BF93CF93DF93EF93FF93D09188
:10591000E900DF708091EC00C82FC17080FDC0E805
:105920001092E9008091F000877F8093F0007894D6
:105930000E94B82C1092E9008091F000886080935A
:10594000F000CD2BCF70C093E900FF91EF91DF9174
:10595000CF91BF91AF919F918F917F916F915F9107
:105960004F913F912F910F900FBE0F901F90189560
:105970001F93CF93DF93CDB7DEB7AA970FB6F894F6
:10598000DEBF0FBECDBF88E792E0FC0101962091FB
:10599000F100208322E080389207B9F70E94112895
:1059A0008091E80083FF1EC1809178029091790276
:1059B0009A3008F017C1E92FF0E0E25FF04D0C9447
:1059C000452E803899F0823809F00CC180917C0214
:1059D0008F70873008F006C18093E9008091EB005A
:1059E00085FB882780F91092E90006C08091740237
:1059F00090917502911182609091E800977F909349
:105A0000E8008093F1001092F1008091E8008E7719
:105A1000E5C0882309F4D3C0823009F0E3C0809147
:105A20007A028111D6C080917C028F702FEF280FEF
:105A3000263008F0D7C08093E9002091EB0020FFCA
:105A4000C8C0933031F48091EB0080628093EB000A
:105A5000C0C09091EB0090619093EB0021E030E0AA
:105A600001C0220F8A95EAF72093EA001092EA001B
:105A70008091EB008860EACF8111B4C010917A0266
:105A80001F778091E3008078812B8093E3008091E1
:105A9000E800877F8093E8000E94D62A8091E80082
:105AA00080FFFCCF8091E30080688093E30082E078
:105AB000111183E08093770295C08058823008F0FE
:105AC00091C080917A0290917B028C3D23E09207F5
:105AD000A1F583E08A838AE289834FB7F894DE01D7
:105AE000139620E03EE051E2E32FF0E050935700A0
:105AF000E49120FF03C0E295EF703F5FEF708E2FBF
:105B000090E0EA30C0F0C7968D939D932F5F2431CB
:105B100059F74FBF8091E800877F8093E8006AE2E1
:105B200070E0CE0101960E94ED298091E8008B770C
:105B30008093E80057C0C096E7CF60917C027091D7
:105B40007D02AE014F5F5F4F0E940E29BC01892B81
:105B500009F448C08091E800877F8093E80089813C
:105B60009A810E94472AE1CF8038E1F58091E800D0
:105B7000877F8093E800809173028093F10045CF86
:105B8000811130C090917A02923060F58091E800E6
:105B9000877F8093E800909373020E94D62A8091B9
:105BA0007302882311F084E005C08091E30087FD33
:105BB000FACF81E0809377020E94022813C080917F
:105BC0007A02813079F481E0933009F080E08093AB
:105BD00075021092E9008091E800877F8093E800C9
:105BE0000E94D62A8091E80083FF0AC08091E800D5
:105BF000877F8093E8008091EB0080628093EB00C8
:105C0000AA960FB6F894DEBF0FBECDBFDF91CF913D
:105C10001F910895CF93809177028823A1F0C091BE
:105C2000E900CF709091EC00892F817090FD80E8A1
:105C3000C82B1092E9008091E80083FD0E94B82CE7
:105C4000CF70C093E900CF910895991B79E004C00B
:105C5000991F961708F0961B881F7A95C9F78095AB
:105C6000089597FB072E16F4009407D077FD09D00E
:105C70000E944B2E07FC05D03EF4909581959F4FD6
:105C80000895709561957F4F0895EE0FFF1F059061
:105C9000F491E02D0994AA1BBB1B51E107C0AA1F78
:105CA000BB1FA617B70710F0A61BB70B881F991FBD
:105CB0005A95A9F780959095BC01CD010895F99961
:105CC000FECF92BD81BDF89A992780B50895A8E1CD
:105CD000B0E042E050E00C94932E262FF999FECFCD
:105CE00092BD81BDF89A019700B4021639F01FBA2F
:105CF00020BD0FB6F894FA9AF99A0FBE089503964C
:105D0000272F0E946E2E0E946D2E252F0E946E2E30
:105D1000242F0C946E2E0196272F0E946E2E0C9429
:105D20006D2EDC01CB01FC01F999FECF06C0F2BD5E
:105D3000E1BDF89A319600B40D9241505040B8F749
:105D40000895F894FFCF130B190B1D0B2B0B2F0B82
:105D5000330B370B3B0B430B470B4B0B4F0B5B0BC7
:105D60005F0B630B670B6B0B890B730B210B270B03
:105D7000530B570B3F0B6F0B7F0B900B940B1212B7
:105D8000121274127412C912E5124212421229132D
:105D9000DC13ED13ED134E1442124212571420245B
:105DA0000D243224A922F324F3240824F324F32419
:105DB0005E24F3246E24D924F324F324F324F3245F
:105DC0009524F324F3247E24F3244924F324F32498
:105DD000F124F124F124F124F124F124F124F1241B
:105DE000F124EB24F32420240124F324F324F324CA
:105DF000F324F324F324F324F324F324F324EB24F3
:105E0000F324F3240824F324EF24EF24EF24EF24D5
:105E1000EF24EF24EF24EF24EF24EB24E12C092DD1
:105E2000F22D092DF22D3C2D5D2DF22DB42DC02D1E
:105E300004022808140A321E4D2651272427ED2675
:105E4000B22601000102030405060708090040C04C
:0E5E5000222C0E6C0D4A0DEF0C080D210D00DA
:00000001FF
